{
    "hex" : "0100000001f429341e50cd8f6cc013d416f8d93eb68a6b64a6a3278e83f987ec18b1b758f5040000006a47304402204952cf337388cfe36c3c86e349e191aca21efae7e2976cd778825a8f302ca17b022061e51ac19ac357ae4d88f4948e38056839a2a9bba7fcfee7ddc3fa4a362b15cd01210283a70980f1b8b1bd151c0b5b17039a817056501bfa8821cf4ba88b98d0039bbdffffffff02a0860100000000001976a914092101dde17be5c2d76d6ebf7d3195e9b24661dd88ac4731ae00000000001976a914c2b0647390c6785446837f15101821f9c700d49088ac00000000",
    "txid" : "fef7a712492d415407d74640d0583ce1c7aa931767f736fbeb90e43deb9fd7ff",
    "version" : 1,
    "locktime" : 0,
    "vin" : [
        {
            "txid" : "f558b7b118ec87f9838e27a3a6646b8ab63ed9f816d413c06c8fcd501e3429f4",
            "vout" : 4,
            "scriptSig" : {
                "asm" : "304402204952cf337388cfe36c3c86e349e191aca21efae7e2976cd778825a8f302ca17b022061e51ac19ac357ae4d88f4948e38056839a2a9bba7fcfee7ddc3fa4a362b15cd01 0283a70980f1b8b1bd151c0b5b17039a817056501bfa8821cf4ba88b98d0039bbd",
                "hex" : "47304402204952cf337388cfe36c3c86e349e191aca21efae7e2976cd778825a8f302ca17b022061e51ac19ac357ae4d88f4948e38056839a2a9bba7fcfee7ddc3fa4a362b15cd01210283a70980f1b8b1bd151c0b5b17039a817056501bfa8821cf4ba88b98d0039bbd"
            },
            "sequence" : 4294967295
        }
    ],
    "vout" : [
        {
            "value" : 0.00100000,
            "n" : 0,
            "scriptPubKey" : {
                "asm" : "OP_DUP OP_HASH160 092101dde17be5c2d76d6ebf7d3195e9b24661dd OP_EQUALVERIFY OP_CHECKSIG",
                "hex" : "76a914092101dde17be5c2d76d6ebf7d3195e9b24661dd88ac",
                "reqSigs" : 1,
                "type" : "pubkeyhash",
                "addresses" : [
                    "mgMDvAfBp2VAYzeQMfPRX4sGgyurT62HCT"
                ]
            }
        },
        {
            "value" : 0.11415879,
            "n" : 1,
            "scriptPubKey" : {
                "asm" : "OP_DUP OP_HASH160 c2b0647390c6785446837f15101821f9c700d490 OP_EQUALVERIFY OP_CHECKSIG",
                "hex" : "76a914c2b0647390c6785446837f15101821f9c700d49088ac",
                "reqSigs" : 1,
                "type" : "pubkeyhash",
                "addresses" : [
                    "myGNhE8KHRpDyhG3QLfXFBmkFj9ZUbSDjx"
                ]
            }
        }
    ],
    "blockhash" : "000000009d635d5552e2a98bac96453abea09188cc563cfd3df280b10dbfcf8e",
    "confirmations" : 1172,
    "time" : 1420911802,
    "blocktime" : 1420911802
}
