{
    "hex" : "0100000002e264bf6cb73a1b534cef8e5367ce4534b7f8c38ffe44c2ad0401b61644f6593d000000008a47304402206df5b3605b8d29872c60f0abcc257da7b59e4736469ed86cf29d8d3cbc22edeb0220330816ddf6db4b8aa8d80ec0518e177a461daab67e86836959b4308081683a9d014104715db56adc49280b322357359efe6ec09e3d6bb820960e798782ec046ae79323beb6399cc4f311f75607d89f9f2524b4b6ef023bd09b01fb3018c6320013b216ffffffff22d10aa3ff5d7fa1c09d4dd6419cf6519a740a579d7b48ee15db5aea21720407020000008a473044022046fbca03e57220801c2d5ddc42d2bc47a8b95f897aee8ef2f22feff28972906002205a8ed237fc427617c25cf87cf5ca2e56ce10853cbb8341bd1e04530bf46d40b9014104aa020714d6ada2b4a9b55bd6fa7dedff77d0ec1dc9f0acf5fe93917a95eca74bfd7d9d5b7496665b9040c1f9d82566759de2e6760af24ad1423eaa1ebc84115dffffffff02f0490200000000001976a91488989f2c91337ad5241abedeafe8ed96fa28940488acc3940000000000001976a9141892fb20347d2ad0285900b52597d46263e619a688ac00000000",
    "txid" : "9d7a7d27caa9f0ae2ec17b9dbe806e7b911c49594913a4b95c4e195ca305f0ba",
    "version" : 1,
    "locktime" : 0,
    "vin" : [
        {
            "txid" : "3d59f64416b60104adc244fe8fc3f8b73445ce67538eef4c531b3ab76cbf64e2",
            "vout" : 0,
            "scriptSig" : {
                "asm" : "304402206df5b3605b8d29872c60f0abcc257da7b59e4736469ed86cf29d8d3cbc22edeb0220330816ddf6db4b8aa8d80ec0518e177a461daab67e86836959b4308081683a9d01 04715db56adc49280b322357359efe6ec09e3d6bb820960e798782ec046ae79323beb6399cc4f311f75607d89f9f2524b4b6ef023bd09b01fb3018c6320013b216",
                "hex" : "47304402206df5b3605b8d29872c60f0abcc257da7b59e4736469ed86cf29d8d3cbc22edeb0220330816ddf6db4b8aa8d80ec0518e177a461daab67e86836959b4308081683a9d014104715db56adc49280b322357359efe6ec09e3d6bb820960e798782ec046ae79323beb6399cc4f311f75607d89f9f2524b4b6ef023bd09b01fb3018c6320013b216"
            },
            "sequence" : 4294967295
        },
        {
            "txid" : "07047221ea5adb15ee487b9d570a749a51f69c41d64d9dc0a17f5dffa30ad122",
            "vout" : 2,
            "scriptSig" : {
                "asm" : "3044022046fbca03e57220801c2d5ddc42d2bc47a8b95f897aee8ef2f22feff28972906002205a8ed237fc427617c25cf87cf5ca2e56ce10853cbb8341bd1e04530bf46d40b901 04aa020714d6ada2b4a9b55bd6fa7dedff77d0ec1dc9f0acf5fe93917a95eca74bfd7d9d5b7496665b9040c1f9d82566759de2e6760af24ad1423eaa1ebc84115d",
                "hex" : "473044022046fbca03e57220801c2d5ddc42d2bc47a8b95f897aee8ef2f22feff28972906002205a8ed237fc427617c25cf87cf5ca2e56ce10853cbb8341bd1e04530bf46d40b9014104aa020714d6ada2b4a9b55bd6fa7dedff77d0ec1dc9f0acf5fe93917a95eca74bfd7d9d5b7496665b9040c1f9d82566759de2e6760af24ad1423eaa1ebc84115d"
            },
            "sequence" : 4294967295
        }
    ],
    "vout" : [
        {
            "value" : 0.00150000,
            "n" : 0,
            "scriptPubKey" : {
                "asm" : "OP_DUP OP_HASH160 88989f2c91337ad5241abedeafe8ed96fa289404 OP_EQUALVERIFY OP_CHECKSIG",
                "hex" : "76a91488989f2c91337ad5241abedeafe8ed96fa28940488ac",
                "reqSigs" : 1,
                "type" : "pubkeyhash",
                "addresses" : [
                    "1DTFjSGeij6woxyaJFaYLMzciKCYP83ZNB"
                ]
            }
        },
        {
            "value" : 0.00038083,
            "n" : 1,
            "scriptPubKey" : {
                "asm" : "OP_DUP OP_HASH160 1892fb20347d2ad0285900b52597d46263e619a6 OP_EQUALVERIFY OP_CHECKSIG",
                "hex" : "76a9141892fb20347d2ad0285900b52597d46263e619a688ac",
                "reqSigs" : 1,
                "type" : "pubkeyhash",
                "addresses" : [
                    "13EwJ2AYPjoEE8CPazG34Atiy4ETqEV65w"
                ]
            }
        }
    ],
    "blockhash" : "000000000000000006130f103b0ff2a418a2510a31fa0466b4ab1922b01f958c",
    "confirmations" : 56,
    "time" : 1421682230,
    "blocktime" : 1421682230
}
